:020000040800F2
:1000000000070020D1000008611900083916000817
:1000100000000000000000000000000000000000E0
:10002000000000000000000000000000AB19000804
:100030000000000000000000A9190008AD19000828
:10004000E3000008E3000008E3000008E300000804
:10005000E3000008E3000008E3000008E3000008F4
:10006000E30000086101000871010008E3000008D6
:10007000E3000008711A0008E3000008E30000082C
:10008000E3000008E300000800000000E3000008AF
:10009000E3000008E3000008E3000008E3000008B4
:1000A000E3000008E3000008E30000085120000816
:1000B0007D20000800000000E3000008034885469A
:1000C00000F03CF800480047C92000080007002065
:1000D0000448804704480047FEE7FEE7FEE7FEE7E6
:1000E000FEE7FEE7151A0008BD00000830B50B4614
:1000F000014600202022012409E00D46D5409D4202
:1001000005D31D469540491B254695404019154687
:10011000521E002DF1DC30BDD2B201E00270401C55
:10012000491EFBD270470022F6E710B513460A4677
:1001300004461946FFF7F0FF204610BD064C012586
:10014000064E05E0E36807CC2B430C3C984710347F
:10015000B442F7D3FFF7B6FF54210008742100081A
:1001600010B5024800F0BAF910BD00006C00002084
:1001700010B5034800F0B2F9024800F0AFF910BD25
:10018000B80200207402002010B50446006805493A
:1001900040181421FFF7AAFF800020640248E063A2
:1001A00010BD0000F8FFFDBF0000024070470000D6
:1001B000F8B500250446403400952278012A3BD04A
:1001C0000122227003689E68760776D43F4F4E68FE
:1001D000BE4254D09E6A0F78BA4016439E620123F5
:1001E000826B1B079A421FD0012A1DD0022A1BD006
:1001F000032A19D0042A17D0052A15D0062A13D0AD
:10020000072A11D002688B6856697607760FB342C9
:100210000AD05369DB08DB005361006842690B7A3E
:100220005B075B0F1A4342610868102806D011284B
:1002300004D0122802D045E00220F8BD244A936879
:10024000102809D011280AD001200006034393602A
:100250000868102806D035E00120C005F6E7012027
:100260008005F3E71C481B490068FFF73FFF0A21A0
:10027000484300E0401E00900028FBD122E0986A2D
:100280000E78B240904398620868102803D0112875
:1002900001D0122816D10E498A68102807D01128DB
:1002A00008D00120000682438A600BE005E00120AF
:1002B000C005F8E701208005F5E7416C20221143D5
:1002C00041640125002020702846F8BD011000007F
:1002D0000027014040420F0004000020F8B500252F
:1002E0000446002803D0606C002802D008E00120FA
:1002F000F8BD0020A06440210855204600F0A8F871
:10030000606C1022104270D12068816849076CD45B
:10031000616C130199430223194361648168890761
:10032000890F012905D10168C9070FD1C1680904E6
:100330000CD4C1681826B143A6683143C160206857
:100340000169666889008908314301612068C168D4
:100350003D4E3140C160A069E1698003C903084393
:10036000216A4E033043666B012E02D0012636030C
:1003700000E000263043E66830432669022E08D0AC
:1003800000263043266B76003043666A012E02D089
:100390000BE00426F5E7002928D0616C20263143C4
:1003A0006164A16C01263143A164A16A0E46FF3E3F
:1003B000C23E02D0E66A314308432168CE68064354
:1003C000CE600126A16B3607B14213D0012911D0AE
:1003D00002290FD003290DD004290BD0052909D0FB
:1003E000062907D0072905D010E028E001210904DB
:1003F0000843DAE721684E69F608F6004E61216885
:100400004E69278F7F077F0F3E434E612168C96881
:100410000E4E3140814207D10020A064606C8008FC
:100420008000401C606408E0606C98431043606486
:10043000A06C01210843A06401252846F8BD606C2A
:1004400010436064F8E700001902FEFFE7FF3F83F6
:10045000F0B587B0054614216846FFF764FE1B49D6
:10046000286888422FD11A4988694E15304388611F
:100470008869304005904A69300202434A614969FF
:1004800000270140059123200090032001900920BE
:1004900069460297C00600F0A9F80E480E4C81C4C8
:1004A00027608020A66060600001E0602020676116
:1004B00020610948083C00F05FF8002801D0FFF7F0
:1004C00075FEEC63656207B0F0BD000000240140DA
:1004D00000100240080002406C000020F0B4C16B24
:1004E0000D6801680C680422066C1346B3402B4269
:1004F0000DD063070BD50B689B0602D40B689343A2
:100500000B60016C8A40C16B4A60C16A19E0022726
:10051000B74002462F4001232032002F15D0A707F5
:1005200013D50C68A40604D40C680A25AC430C60EF
:100530005370036C02219940C36B59600021117004
:10054000816A002916D0F0BC08470827B7402F421F
:1005500010D024070ED50C680E25AC430C60046C3B
:100560001946A140C46B6160836353700021117010
:10057000016BE6E7F0BC704770B5040024D00220A0
:10058000214620310D464870226811680F48A36843
:100590000140606826691843E36833431843636980
:1005A0001843A3691843E3691843084310602046C1
:1005B000FFF7EAFD0020A062E06220636063A063B1
:1005C00001216970287070BD012070BD0FC0FFFF50
:1005D00031B500F0B9F8009C0546601C00D0641CE1
:1005E00000F0B2F8401BA042FAD338BDF8B50023A2
:1005F0008DE001249C40A44622407DD04C68022C12
:1006000001D0122C0CD1DC08A40027183C6A5D072D
:10061000ED0E0F26AE40B4430E69AE4026433E6257
:1006200005685E000324B4400F79A543BF07BF0FE0
:10063000B7402F4307604D68012D05D0022D03D030
:10064000112D01D0122D0ED18568CF68A543B7407A
:100650002F43876047686546AF430D79ED06ED0F80
:100660009D403D434560C568A5438C68B4402C431C
:10067000C4604C68E40049D5284CA569012635437F
:10068000A561A4699D0834400094254CAD002F1944
:10069000BC689D072E0F0F25B540AC430925ED061C
:1006A000A84201D100250FE01E4DA84201D101252D
:1006B0000AE01D4DA84201D1022505E01B4DA842CC
:1006C00001D1032500E00525B5402543BD60184C48
:1006D00025684E689543F60300D515432560656887
:1006E0004E689543B60300D515436560A5684E680E
:1006F0009543F60202D500E008E01543A560E568E1
:100700004E689543B60200D51543E5605B1C0A6848
:100710001446DC4000D06CE7F8BD00000010024039
:10072000000001400004004800080048000C004898
:100730000004014042694A4042617047002A01D0EA
:10074000816170478162704701480068704700000E
:100750000000002002480168491C01607047000049
:100760000000002010B50648016810221143016006
:10077000002000F007F800F017F8002010BD00007E
:100780000020024010B5044600F042F97D21C90066
:10079000FFF7ACFC00F0C4FB00222146501E00F025
:1007A00021F8002010BD000008B508488169012229
:1007B00011438161816911400091C26901040A43BA
:1007C000C261C0690840009008BD000000100240EE
:1007D000C106C90E01208840014908607047000029
:1007E00000E100E010B501F0BDF810BDF8B5054618
:1007F0000068394CC00352D5E0690026C00007D418
:10080000E16920040143E161E169014001260091B1
:1008100032480168C90510D401688215114301608E
:10082000FFF792FF074604E0FFF78EFFC01B642826
:1008300024D82A480068C005F6D5206A03273F025D
:10084000384020D06968394081421CD0206A226A31
:10085000B843012109040A432262226A8A432262C0
:100860002062C0070FD0FFF76FFF009008E0FFF78E
:100870006BFF0099411A1A48814201D90320F8BD43
:10088000206A8007F3D5206A6968B843084320626C
:10089000002E04D0E169012000078143E16128783E
:1008A000C00705D0206BA96880088000084320633A
:1008B0002878800605D5206B10218843E968084315
:1008C00020632888400505D5206B4021884329698D
:1008D000084320630020F8BD001002400070004073
:1008E00088130000F8B5054644480E460068C00766
:1008F000C00FB0420AD2414801684908490031435B
:1009000001600068C007C00FB0425CD128783C4C41
:10091000800705D56068F0218843A96808436060B6
:100920002878C0073FD06868012813D021680228C2
:1009300013D08907002946DA6168890889000143D4
:100940006160FFF701FF6968074601290DD00229A0
:1009500017D024E021688903ECE78901EAE7FFF773
:10096000F3FEC11B2748814217D860680007800F3B
:100970000128F4D117E0FFF7E7FEC11B21488142AF
:100980000BD860680007800F0228F4D10BE0FFF756
:10099000DBFEC11B1B48814201D90320F8BD606802
:1009A0000007800FF3D115480168C907C90FB1428C
:1009B0000BD9016849084900314301600068C0074C
:1009C000C00FB04201D00120F8BD2878400706D5FD
:1009D0006068072109028843E9680843606000F005
:1009E0002DF86168084A0906090F515CC84007499B
:1009F00008600020FFF7C6FE0020F8BD002002407E
:100A000000100240881300003C2100080400002070
:100A100001480068704700000400002004480549B0
:100A200000684968044A4905490F515CC84070474D
:100A300004000020001002404C21000810B512A351
:100A40000FCB88B06C460FC413A30FCB0FC416494D
:100A50004A680C20134603401448042B0FD0082B7F
:100A60000DD193021B0F6C46E45CC96A04AB090705
:100A7000090F595CD20304D5FFF738FB604308B077
:100A800010BD0B486043FAE7020304050607080996
:100A90000A0B0C0D0E0F10100102030405060708C7
:100AA000090A0B0C0D0E0F100010024000127A0004
:100AB00000093D00FEB504460078D04DC00747D080
:100AC00068680007800F012807D068680007800F5A
:100AD000022809D16868C00306D52868800337D585
:100AE000606800287ED033E0012062680004012A9B
:100AF00011D08100002A01D0052A10D02A68824333
:100B00002A602868884328606068002814D0FFF7AE
:100B10001BFE06460CE0296801432960F4E72A68B9
:100B20000A432A60F7E7FFF70FFE801B64286FD89F
:100B300028688003F7D50BE0FFF706FE064604E0C1
:100B4000FFF702FE801B6428F1D828688003F7D4E1
:100B500020780126800700283BDA68680007800FAC
:100B600007D068680007800F022809D16868C003B1
:100B700006D42868800715D5E068012832D111E035
:100B8000E0680028286815D030432860FFF7DCFDB6
:100B9000074604E0FFF7D8FDC01B0228C7D8286825
:100BA0008007F7D52868F82188432169C9000843E0
:100BB00028600EE0400840002860FFF7C5FD0746AA
:100BC00004E0FFF7C1FDC01B0228B0D828688007E9
:100BD000F7D42078000724D5E0690028686A10D08F
:100BE000304300E008E16862FFF7AEFD074604E02D
:100BF000FFF7AAFDC01B022899D8686A8007F7D5BD
:100C00000FE0400840006862FFF79EFD074605E0E0
:100C10009DE0FFF799FDC01B022888D8686A80070D
:100C2000F7D4207804274007002860DA00200190DC
:100C3000E869C00008D4E969B8060143E961E969D7
:100C400001400120009101906D480168C90511D44F
:100C50000168821511430160FFF776FD009005E001
:100C6000FFF772FD0099401A642870D86448006844
:100C7000C005F5D5A06801280AD0002801D00528B4
:100C800010D0286A400840002862286AB84301E072
:100C9000286A30432862A068002812D0FFF754FD6C
:100CA00000900AE0286A38432862F1E7FFF74CFD1C
:100CB0000099411A5348814249D8286A8007F5D5DE
:100CC0000DE0FFF741FD009006E0FFF73DFD0099C4
:100CD000411A4C4881423AD8286A8007F5D40198D5
:100CE000002804D0E969012000078143E9612078E8
:100CF000C00635D5606901280CD0401D686B23D033
:100D000038436863686B400840006863FFF71CFD68
:100D1000064622E0686B38436863686B304368635B
:100D2000FFF712FD064604E0FFF70EFD801B0228C8
:100D30005BD8686B8007F7D5686BF8218843A16999
:100D4000C900084368630BE0B8436863F4E74CE00C
:100D5000FFF7FAFC801B022847D8686B8007F7D49E
:100D6000206A002846D069680907890F022943D004
:100D7000012636060228286805D0B0432860FFF710
:100D8000E3FC044633E0B0432860FFF7DDFC074690
:100D900004E0FFF7D9FCC01B022826D82868800190
:100DA000F7D4E86AE16A000900010843E862616A71
:100DB000A06A084369683D221204914308436860B1
:100DC000286830432860FFF7BFFC044604E0FFF7C3
:100DD000BBFC001B022808D828688001F7D509E071
:100DE000FFF7B2FC001B022801D90320FEBD2868D2
:100DF0008001F5D40020FEBD0120FEBD00100240A0
:100E00000070004088130000F8B5040007D00026E9
:100E100025464035A662687F002802D005E0012003
:100E2000F8BD2E77204600F04BF802236B77206840
:100E300001684022914301600721E068090288426D
:100E400001D9002201E0012212030F273F02B8421C
:100E500002D0884200D0A662276B002F05D18842BD
:100E600001D9236301E001202063A1686068636900
:100E700008432169194308430123A1695B02194012
:100E80000843E1690843216A0843A16A08432168CD
:100E90000860616B606AA36908431B0C0427E16862
:100EA0003B40194308432168104348602068C169EA
:100EB0007A029143C1612666012068770020F8BD5F
:100EC00010B586B0044614216846FFF72CF9114985
:100ED000206888421BD11048826981140A438261CC
:100EE00082690A400592426989010A434261406968
:100EF0000840059038200090022000210190032036
:100F000002910491039069460448FFF76FFB06B015
:100F100010BD0000003001400010024000040048F5
:100F2000094910B5401E884201D9012010BD074C67
:100F300060610321081F00F015FD0020A06107205B
:100F40002061002010BD0000FFFFFF0000E000E076
:100F50007047704770B5034620331A7F012A27D0A7
:100F600001241C7702225A770326CA683602B2434C
:100F70008E6800253243A602B2434E6800683243B1
:100F8000E602B2430E6832432603B2430E6932438F
:100F90006603B2434E6989693243A603B2430A43EA
:100FA000E603B2430A4342645C771D77002070BDBC
:100FB000022070BD70B502462032137F012B1BD07A
:100FC0000123137702245477046865687026B543BB
:100FD0006560046865680E68354365600468A568E7
:100FE0008026B543A5600068846849680C43846026
:100FF00053770020107770BD022070BD70B50400DB
:1010000005D025462035687F002802D006E0012063
:1010100070BD00202877204600F00AF8022068778B
:10102000211D206800F032FD01206877002070BD8E
:1010300008B5104A0168104891420FD18269C11465
:101040000A438261806900220840009011460D2009
:10105000FFF7C8FB0D20FFF7BBFB08BD074A914215
:10106000FBD18269012189040A43826180690840B9
:10107000009008BD002C01400010024000480140D3
:10108000F8B5054604462035287F012817D00127EA
:101090002F7702206877226890687726FF23B04375
:1010A0001B02984390600868502837D00EDC202837
:1010B00057D006DC00284ED0102840D14EE0022048
:1010C000F8BD302850D0402839D13CE060282DD0E0
:1010D000702817D001221203801A0ED090422ED110
:1010E000CB684A688968206800F01AFD206881682A
:1010F000012292031143816021E020688168C908C0
:10110000C900F8E7CB684A688968206800F008FDE4
:1011100021688868B0433043886010E0CA68496835
:10112000206800F00DFE5021206806E0CA6849687A
:10113000206800F016FE6021206800F0FCFC6F774C
:1011400000202877F8BDCA684968206800F0F8FDDB
:1011500040212068F1E700212068EEE71021206897
:10116000EBE720212068E8E730212068E5E77047B9
:1011700070B50446006801690025C9438907002944
:1011800015DBC168C943890711D4E91E016101203B
:101190002077206880698007204602D0FFF7E7FFAC
:1011A00004E000F0BFF8204600F040F92577206801
:1011B0000169C943490717D4C168C943490713D412
:1011C0000421C943016102202077206880698005DD
:1011D000800F204602D0FFF7CAFF04E000F0A2F81B
:1011E000204600F023F9257720680169C9430907E3
:1011F00016D4C168C943090712D40821C943016143
:10120000042020772068C0698007204602D0FFF7BD
:10121000AEFF04E000F086F8204600F007F92577DD
:1012200020680169C943C90617D4C168C943C90602
:1012300013D41021C9430161082020772068C069B8
:101240008005800F204602D0FFF791FF04E000F0F8
:1012500069F8204600F0EAF8257720680169C9435B
:10126000C90708D1C168C943C90704D1891E0161F2
:10127000204600F0DCF820680169C943090609D45A
:10128000C168C943090605D48021C94301612046CC
:10129000FFF75EFE20680169C943490609D4C168A9
:1012A000C943490605D44021C9430161204600F0E5
:1012B000BFF820680169C943890609D4C168C943D8
:1012C000890605D42021C94301612046FFF741FE6C
:1012D00070BD000010B586B0044614216846FEF7C4
:1012E00022FF0D492068884214D10C48426901212F
:1012F00089040A43426140690840059080200090BB
:101300000221002001910290049103906946044853
:10131000FFF76CF906B010BD004801400010024014
:10132000000400487047F8B5064604462036307F72
:101330000D4601280DD00120307702207077042758
:10134000002A08D0042A16D0082A2AD00C2A4DD107
:1013500037E00220F8BD206800F0F6FB20688169C4
:1013600008221143816120688169B9438161206845
:1013700081692A6912E0206800F02AFC20688269ED
:101380000121C9020A438261206881690122920217
:1013900091438161206881692A6912021143816148
:1013A00024E0206800F054FC2068C26908210A4348
:1013B000C2612068C169B943C1612068C1692A69F5
:1013C00012E0206800F086FC2068C1690122D20288
:1013D0001143C1612068C269012189028A43C26147
:1013E0002068C1692A6912021143C1610120707726
:1013F00000203077F8BD70B5040005D025462035B3
:10140000687F002802D006E0012070BD0020287708
:10141000204600F00AF802206877211D206800F0BD
:1014200035FB01206877002070BD7047704770471A
:10143000704770B5040005D025466035687A0028ED
:1014400002D006E0012070BD00202872204600F086
:1014500027F8242068722068016849084900016063
:10146000204600F02BFD0128EDD0606A002802D054
:10147000204600F089FC206841680922D20291438D
:101480004160206881682A22914381602068016858
:10149000012211430160204600F0DCFC70BD000019
:1014A000F0B587B0064614216846FEF73CFE3B4F78
:1014B000012135683A484904022303220024BD4231
:1014C00048D18769CD102F43876187692F400597E1
:1014D00045690D43456140696D46084005905002DD
:1014E000039219C50120049009206946C006FFF740
:1014F0007DF82C482C4D802711C52C60AC60EC6029
:101500006F6020206C6128612748083DFFF734F8A0
:10151000002801D0FEF74AFE75666E62224D214812
:101520004435143828601020291D91C12C616C614C
:10153000AC612846EC61FFF71FF8002801D0FEF7E8
:1015400035FE3566002211461B206E62FFF74AF910
:101550001B201FE0154EB5421ED1C5690D43C56164
:10156000C5690D40059545690D43456140696D4666
:10157000084005900C20039219C501200490092011
:101580006946C006FFF732F8002211461C20FFF71B
:1015900029F91C20FFF71CF907B0F0BD0038014005
:1015A000001002403000024074020020004400405D
:1015B00070B5034660339C7A202C39D100290BD0BA
:1015C000002A09D0012584682D03AC4206D10669A2
:1015D000002E03D1CE0701D0012070BD1E7A012E4E
:1015E00026D001261E724165014640310A834A8396
:1015F000FF22AC4204D10469002C07D10D4A05E05A
:10160000002C04D10469002C00D07F228A830021A1
:10161000C16622229A72197201688A6832438A600E
:1016200000680168FF22213211430160002070BD73
:10163000022070BDFF010000FEE700003EB500245F
:101640001F49204800940194029412C00460446031
:10165000012504618560446185610421C461C16024
:10166000FF210246C231203232C2C5620838FEF77D
:1016700035FE002801D0FEF799FD012000030190FE
:1016800007200290009469460E48FEF791FD00285D
:1016900001D0FEF78BFD69460A480095FEF788FDEC
:1016A000002801D0FEF782FD05200090694605481C
:1016B000FEF77EFD002801D0FEF778FD3EBD00005C
:1016C000002401402000002008B50C484169012297
:1016D00011434161406910400022009011460920E9
:1016E000FFF780F80920FFF773F8002211460A205F
:1016F000FFF778F80A20FFF76BF808BD00100240EA
:10170000F0B587B014216846FEF70DFD1C4842690C
:10171000012189050A43426142690A4005924269F2
:1017200049110A43426142690A40059242694900EF
:101730000A4342614069134F08400590002201218D
:101740003846FEF7FBFF7E01092000223146C00625
:10175000FEF7F4FF012500240095029469463846FF
:1017600001950394FEF742FF092002946946C006E2
:10177000009601950394FEF739FF07B0F0BD000015
:10178000001002400004004810B511480F490160E4
:10179000FF210531416000210722816012020161B1
:1017A000C2600122416152028261016241620822EB
:1017B00081620723C261C36242630163FFF724FBB6
:1017C000002801D0FEF7F2FC10BD000000300140FF
:1017D000B000002010B58EB01C216846FEF7A3FCB7
:1017E0001C2107A8FEF79FFC214820490160002426
:1017F0002049846041600461446164218461C16066
:10180000FFF7FCFB002801D0FEF7D0FC1848FFF7DB
:10181000F2FD002801D0FEF7C9FC602000905A209C
:10182000069401900294039404940594002269465E
:101830000F48FFF778FD002801D0FEF7B7FC012024
:101840000794400308940C9009940A940B9407A9F8
:101850000D940748FFF77EFB002801D0FEF7A6FC99
:101860000348FFF737FD0EB010BD000000480140EF
:1018700054010020BF12000010B586B0002400946F
:101880001848019402940394049415490594016046
:101890001549416010218160046114494461C160AF
:1018A00080218161FFF7AAFB002801D0FEF77EFCB2
:1018B00001200003009069460A48FFF7E1FB002879
:1018C00001D0FEF773FC049404A906480594FFF7C1
:1018D00071FB002801D0FEF769FC06B010BD0000C6
:1018E000002C014014010020BF120000102700004E
:1018F00010B50C480A4901604B21C9014160002123
:101900008160C16001618161C1610C22016242613B
:101910004162FFF78EFD002801D0FEF747FC10BDA5
:10192000003801409401002010B50C480A490160BC
:101930004B21C901416000218160C1600161816169
:10194000C1610C22016242614162FFF772FD002811
:1019500001D0FEF72BFC10BD004400400402002023
:10196000704700008307FF22DB0E9A408907090EAB
:10197000994000280BDA0007000F08388308084850
:101980009B001818C36993430B43C36170478308D6
:1019900004489B001B181868904308431860704760
:1019A00000ED00E000E400E07047704710B5FEF77E
:1019B000D1FE10BD70B596B030216846FEF7B3FB7E
:1019C00000240C940D940E94142110A80F94FEF78B
:1019D000AAFB012511200595009001951020069085
:1019E00000030990000102260A9008960B946846AD
:1019F000FFF760F807200C900E9401210D960F94CC
:101A00000CA8FEF76FFF10A810951294FEF7EEFEDB
:101A100016B070BD1348016801221143016041688E
:101A2000114A114041600168104A1140016001688B
:101A3000012292049143016041683F2212049143C4
:101A40004160C16A09090901C162016BFF22543278
:101A500091430163416B4908490041630021816062
:101A600070470000001002400CB8FFF8FFFFF6FEC0
:101A700010B501210348FEF75DFE0348FFF778FB30
:101A800010BD00000004004814010020F0B50268F9
:101A90001D4B0124A4071D4D984203D0A04201D044
:101AA000A84203D17026B2434E683243184E194FF4
:101AB00098420DD0A0420BD0A84209D0164CA042AB
:101AC00006D0B04204D0B84202D0144CA04204D197
:101AD00003242402A243CC6822438024A2434C69FD
:101AE000224302608A68C2620A688262984206D013
:101AF000B04204D0B84202D0084A904201D10969EC
:101B0000016301214161F0BD002C0140000400404F
:101B100000400140004401400020004000480140D6
:101B200030B58468FF252D021B021343AC430B43E1
:101B30002343836030BD826870239A430A430721A0
:101B40000A43826070470000F0B5026A52085200F2
:101B50000262056A436882697024A24392080C6895
:101B600092001443022295438A68164E2A43144D6C
:101B7000A84207D0B04205D0134FB84202D0134F4D
:101B8000B84206D10827BA43CF68174304229743C7
:101B90003A46A84207D0B04205D00B4DA84202D029
:101BA0000A4DA84206D103252D02AB434D691D43C2
:101BB0008B692B4343608461496841630262F0BDD5
:101BC000002C014000400140004401400048014019
:101BD00070B5026A10239A430262056A42688369FB
:101BE00073242402A3430C6824021C4320239D4336
:101BF0008B681B012B43124DA84208D11D46CB68B0
:101C00008026B5431B012B434025AB4308E00D4D17
:101C1000A84205D00C4DA84202D00C4DA84208D1D4
:101C20000325AD02AA434D69AD0015438A699200B0
:101C30002A434260846149688163036270BD000089
:101C4000002C014000400140004401400048014098
:101C500070B5026AFF2301339A430262056A436842
:101C6000C2697024A24392080C68920014430122B6
:101C7000520295438A6812022A43124DA84208D1A3
:101C80001546CA68C614B54312022A430515AA436D
:101C900008E00D4DA84205D00C4DA84202D00C4DD5
:101CA000A84208D103252D03AB434D692D011D43E7
:101CB0008B691B012B434360C4614968C1630262A5
:101CC00070BD0000002C0140004001400044014074
:101CD0000048014030B5026A01231B039A430262A7
:101CE000046A4268C36973252D02AB430D682D0257
:101CF0001D4301235B039C438B681B0323430C4C54
:101D0000A04208D00B4CA04205D00B4CA04202D000
:101D10000A4CA04205D10124A403A2434C69A401AA
:101D200022434260C56149680164036230BD00001E
:101D3000002C0140004001400044014000480140A7
:101D400030B5036A046A6408640004628469F0259B
:101D5000AC43120122430A24A3430B438261036272
:101D600030BD30B5036A1024A34303628469036A5B
:101D70000F252D031203AC432243A024A3430901E2
:101D800019438261016230BD10B5818CC90707D04B
:101D900001684A6801235B049A43836A1A434A60D4
:101DA000818C890707D501684A6801231B049A437F
:101DB000C36A1A434A60818C490707D501684A689B
:101DC00001239B049A43036B1A434A60818C0907E1
:101DD00007D501684A680123DB039A43436B1A4322
:101DE0004A60818CC90607D50268916801231B03EC
:101DF0009943836B19439160818C890607D50168EB
:101E00008A6801235B039A43C36B1A438A60818CFF
:101E1000490612D503685A6801210905046C8A43F2
:101E200022435A60026C8A4207D102685168032338
:101E30005B059943436C19435160818C090607D5B2
:101E400001684A680123DB04806C9A4302434A60BC
:101E500010BD0000F8B500260446C666FEF774FC07
:101E600005461449206888421DD10068124F0007BA
:101E700009D501212B46002249052046009700F094
:101E8000B5F800280DD12068006840070BD5012166
:101E90002B46002289052046009700F0A7F800286D
:101EA00001D00320F8BD202060346072A072267239
:101EB0000020F8BD00380140FFFFFF01F8B50446DF
:101EC0002369A268E5691A43636910202B43002146
:101ED00025681A432B680E463E4F3B4013432B6048
:101EE00023685A6803252D03AA43E5682A435A60EC
:101EF000236AA26925681A43AB680B273F02BB43DC
:101F00001343AB60344A2568954210D1334A126BB3
:101F10009207920F0ED0012A05D0022A05D0032A7B
:101F200009D1022007E0042005E0082003E02C4A44
:101F3000954200D100200122E369D203934224D1CB
:101F400000280CD002280DD0042813D0082817D060
:101F500001260A0912010807400F10432FE0FEF77F
:101F60005DFD09E061681F4A48088018FEF7BEF869
:101F700081B2EEE7FEF762FD616840004A08F4E7CF
:101F80006168012248081204EFE7002808D00228FF
:101F900009D004280BD0082814D001263046F8BDFB
:101FA000FEF73CFD05E061680F4A48080CE0FEF7CB
:101FB00045FD61684A088018FEF798F880B22168EC
:101FC000C860EBE7616848088018FEF78FF880B2B8
:101FD000E860E3E7F369FFFF0038014000100240CA
:101FE000004400400024F40000127A00FFB581B0E4
:101FF00017460E4604460A9D1DE0681C1BD0002DA6
:1020000005D0FEF7A1FB0499401AA84213D9206815
:102010000168FF22A132914301602068816849086C
:1020200049008160202060346072A072002020721C
:10203000032005B0F0BD2068C1693046884304D054
:102040000020B842D9D00020F3E70120F9E70000D2
:1020500007480068C069C043800608D40548C169C4
:102060004906FCD504488088024920310881704720
:1020700094010020004400402038014007480068D7
:10208000C069C043800608D40548C1694906FCD52B
:1020900004488088024920310881704704020020EA
:1020A000003801402044004002E008C8121F08C167
:1020B000002AFAD170477047002001E001C1121FC9
:1020C000002AFBD1704700000EB5FEF74BFBFFF76F
:1020D00071FCFFF715FBFFF7F7FAFFF7CDFBFFF7F2
:1020E00007FCFFF751FBFFF775FBFFF7A7FAFFF7B8
:1020F0001BFC0F4C20680168202529430160012248
:102100000C490D48FFF754FA00200090019002900E
:102110002068016829430160012269462046FFF7D3
:1021200047FA7D24E4002046FEF752FAFBE7000060
:10213000040200200800002094010020000000009C
:102140000000000001020304060708090000000067
:1021500001020304742100080000002008000000B0
:10216000A82000087C21000808000020F8060000D4
:0C217000B82000080000000000127A00F7
:04000005080000BD32
:00000001FF
